:100000000C945D000C9485000C9485000C94850084
:100010000C9485000C9485000C9485000C9485004C
:100020000C9485000C9485000C9485000C9485003C
:100030000C9485000C9485000C9485000C9485002C
:100040000C94F0020C9485000C9460030C943A0319
:100050000C9485000C9485000C9485000C9485000C
:100060000C9485000C9485000000000024002700FB
:100070002A0000000000250028002B0004040404CE
:100080000404040402020202020203030303030342
:10009000010204081020408001020408102001021F
:1000A00004081020000000080002010000030407FB
:1000B0000000000000000000E70411241FBECFEF85
:1000C000D8E0DEBFCDBF11E0A0E0B1E0E6EFFAE09E
:1000D00002C005900D92A233B107D9F721E0A2E347
:1000E000B1E001C01D92AC3DB207E1F710E0CDE5F3
:1000F000D0E004C02197FE010E947305CC35D107E2
:10010000C9F70E9492030C9479050C94000090E0CA
:10011000FC01EC55FF4F2491FC01E057FF4F349157
:10012000FC01E458FF4FE491EE23C9F0222339F09B
:10013000233001F1A8F4213019F1223029F1F0E047
:10014000EE0FFF1FEE58FF4FA591B4918FB7F894B3
:10015000EC91611126C030953E233C938FBF0895EA
:100160002730A9F02830C9F0243049F78091800069
:100170008F7D03C0809180008F7780938000DFCFD8
:1001800084B58F7784BDDBCF84B58F7DFBCF809125
:10019000B0008F778093B000D2CF8091B0008F7D78
:1001A000F9CF3E2BDACFCF93DF9390E0FC01E057FD
:1001B000FF4F249184589F4FFC0184918823D1F0F4
:1001C00090E0880F991FFC01E859FF4FA591B49169
:1001D000FC01EE58FF4FC591D49161110EC09FB73D
:1001E000F8948C91E22FE0958E238C932881E22362
:1001F000E8839FBFDF91CF9108958FB7F894EC917A
:10020000E22BEC938FBFF6CF8E50806480937C00FE
:1002100080917A00806480937A0080917A0086FDD4
:10022000FCCF809178009091790008953FB7F894C1
:1002300080913B0190913C01A0913D01B0913E0124
:1002400026B5A89B05C02F3F19F00196A11DB11D31
:100250003FBFBA2FA92F982F8827BC01CD01620F6D
:10026000711D811D911D42E0660F771F881F991F28
:100270004A95D1F708958F929F92AF92BF92CF92F5
:10028000DF92EF92FF920E9416014B015C0184EF16
:10029000C82EDD24D394E12CF12C0E94160168199C
:1002A00079098A099B09683E734081059105A8F385
:1002B00021E0C21AD108E108F10888EE880E83E037
:1002C000981EA11CB11CC114D104E104F10429F74A
:1002D000FF90EF90DF90CF90BF90AF909F908F9066
:1002E0000895AF92BF92CF92DF92EF92FF920F9359
:1002F0001F93CF93DF936C017B018B01040F151FBC
:10030000EB015E01AE18BF08C017D10759F0699123
:10031000D601ED91FC910190F081E02DC601099587
:10032000892B79F7C501DF91CF911F910F91FF9034
:10033000EF90DF90CF90BF90AF900895FC01538D68
:10034000448D252F30E0842F90E0821B930B5417AF
:1003500010F0CF96089501970895FC01918D828D3C
:10036000981761F0A28DAE0FBF2FB11D5D968C91D5
:10037000928D9F5F9F73928F90E008958FEF9FEF14
:100380000895FC01918D828D981731F0828DE80FD0
:10039000F11D858D90E008958FEF9FEF0895FC018A
:1003A000918D228D892F90E0805C9F4F821B910957
:1003B0008F73992708958FE391E00E94CF0121E088
:1003C000892B09F420E0822F089580E090E0892BAA
:1003D00029F00E94DB0181110C9400000895FC01BA
:1003E000A48DA80FB92FB11DA35ABF4F2C91848D96
:1003F00090E001968F739927848FA689B7892C93F3
:10040000A089B1898C91837080648C93938D848D45
:10041000981306C00288F389E02D80818F7D808348
:100420000895EF92FF920F931F93CF93DF93EC0108
:1004300081E0888F9B8D8C8D98131AC0E889F9898B
:10044000808185FF15C09FB7F894EE89FF8960838E
:10045000E889F98980818370806480839FBF81E00F
:1004600090E0DF91CF911F910F91FF90EF90089551
:10047000F62E0B8D10E00F5F1F4F0F731127E02E2C
:100480008C8D8E110CC00FB607FCFACFE889F98964
:10049000808185FFF5CFCE010E94EF01F1CFEB8D7A
:1004A000EC0FFD2FF11DE35AFF4FF0829FB7F89438
:1004B0000B8FEA89FB8980818062CFCFCF93DF9356
:1004C000EC01888D8823B9F0AA89BB89E889F9896C
:1004D0008C9185FD03C0808186FD0DC00FB607FCA1
:1004E000F7CF8C9185FFF2CF808185FFEDCFCE01D4
:1004F0000E94EF01E9CFDF91CF910895FC010190B7
:100500000020E9F73197AF01481B590BBC018FE37D
:1005100091E00C9471018F929F92AF92BF920F93D2
:100520001F93CF93DF93CDB7DEB7A1970FB6F894A3
:10053000DEBF0FBECDBF19A2423008F44AE08E01E3
:100540000F5D1F4F842E912CB12CA12CA50194017D
:100550000E943305E62FB901CA01EA30F4F4E05DE8
:10056000D801EE938D01232B242B252B79F790E0D6
:1005700080E0109719F0CD010E947E02A1960FB67F
:10058000F894DEBF0FBECDBFDF91CF911F910F91C9
:10059000BF90AF909F908F900895E95CE1CFCF928C
:1005A000DF92EF92FF92CF93DF936B017C016DE2BC
:1005B0008FE391E00E941102EC0166277727CB01BF
:1005C0006C197D098E099F094AE00E948B028C0FED
:1005D0009D1FDF91CF91FF90EF90DF90CF90089516
:1005E0001F920F920FB60F9211242F933F938F9368
:1005F0009F93AF93BF938091370190913801A09161
:100600003901B0913A013091360123E0230F2D37A3
:1006100058F50196A11DB11D209336018093370135
:1006200090933801A0933901B0933A0180913B0136
:1006300090913C01A0913D01B0913E010196A11D18
:10064000B11D80933B0190933C01A0933D01B09379
:100650003E01BF91AF919F918F913F912F910F904C
:100660000FBE0F901F90189526E8230F0296A11D2C
:10067000B11DD2CF1F920F920FB60F9211242F935C
:100680003F934F935F936F937F938F939F93AF931A
:10069000BF93EF93FF938FE391E00E94EF01FF91EF
:1006A000EF91BF91AF919F918F917F916F915F91EA
:1006B0004F913F912F910F900FBE0F901F90189563
:1006C0001F920F920FB60F9211242F938F939F9327
:1006D000EF93FF93E0914F01F09150018081E09101
:1006E0005501F091560182FD1BC090818091580107
:1006F0008F5F8F7320915901821741F0E09158016B
:10070000F0E0E15CFE4F958F80935801FF91EF91EF
:100710009F918F912F910F900FBE0F901F90189562
:100720008081F4CF789484B5826084BD84B5816083
:1007300084BD85B5826085BD85B5816085BD8091AC
:100740006E00816080936E00109281008091810024
:10075000826080938100809181008160809381001C
:10076000809180008160809380008091B1008460DE
:100770008093B1008091B00081608093B00080913F
:100780007A00846080937A0080917A0082608093FE
:100790007A0080917A00816080937A0080917A005B
:1007A000806880937A001092C100E0914F01F0912F
:1007B000500182E08083E0914B01F0914C01108266
:1007C000E0914D01F0914E018FEC80831092570122
:1007D000E0915301F091540186E08083E091510152
:1007E000F0915201808180618083E0915101F0910C
:1007F0005201808188608083E0915101F091520123
:10080000808180688083E0915101F0915201808164
:100810008F7D808361E08DE00E94D30060E080E105
:100820000E94D30061E083E00E94D30060E08EE08C
:100830000E94D30060E08FE00E94D30087EAE82E98
:1008400080E0F82E88248A9493E0992EA12CB12C74
:1008500000E010E061E08DE00E9487000E943B0113
:1008600060E08DE00E9487000E943B0180E10E94D1
:100870000401EC0161E083E00E94D300209709F0BD
:1008800044C060E083E00E9487008EE00E94040183
:100890009C01ACE9BFEF0E946405A50194010E9490
:1008A00014052C593F4F4F4F5F4F30933501209324
:1008B00034018FE00E9404019C01ACE9BFEF0E946B
:1008C0006405A50194010E9414052C593F4F4F4F18
:1008D0005F4F309333012093320180E10E94040185
:1008E000811592400CF06AC082E191E00E947E0284
:1008F0006091340170913501072E000C880B990B23
:1009000097FF49C00E94CF0249C0CF3FD10511F4E3
:1009100061E0B8CFF7018491833019F140F4813060
:10092000B1F08230C9F0C038D10594F7AACF873032
:1009300011F1883041F18430B1F7809180008062FC
:1009400080938000D0938B00C0938A009ECF84B5A3
:10095000806884BDC7BD99CF84B5806284BDC8BDA1
:1009600094CF80918000806880938000D09389002C
:10097000C09388008ACF8091B00080688093B000D7
:10098000C093B30082CF8091B00080628093B000AA
:10099000C093B4007ACF4AE00E948B0280E291E0DB
:1009A0000E947E020115110509F454CF0E94DB015B
:1009B000882309F44FCF0E9400004CCF83E291E0DE
:1009C0000E947E02609132017091330195CFEFE376
:1009D000F1E01382128288EE93E0A0E0B0E084831D
:1009E0009583A683B78384E091E09183808385EC2F
:1009F00090E09587848784EC90E09787868780ECE9
:100A000090E0918B808B81EC90E0938B828B82ECD9
:100A100090E0958B848B86EC90E0978B868B118E83
:100A2000128E138E148E0895052E97FB1EF40094DB
:100A30000E942B0557FD07D00E94330507FC03D009
:100A40004EF40C942B0550954095309521953F4FD1
:100A50004F4F5F4F089590958095709561957F4FAA
:100A60008F4F9F4F0895A1E21A2EAA1BBB1BFD01B9
:100A70000DC0AA1FBB1FEE1FFF1FA217B307E4077D
:100A8000F50720F0A21BB30BE40BF50B661F771FD5
:100A9000881F991F1A9469F76095709580959095B5
:100AA0009B01AC01BD01CF010895A29FB001B39F8E
:100AB000C001A39F700D811D1124911DB29F700D67
:100AC000811D1124911D08950E945505332312F4B0
:100AD0008A1B9B0B0C946E050E945505B7FF089569
:100AE000821B930B0895EE0FFF1F0590F491E02DEC
:060AF0000994F894FFCF09
:100AF60000000000110271019E015E02CF01AD01EE
:100B0600C10170696E306469676974616C3A20006E
:100B16000D0A0070696E316469676974616C3A2008
:020B26000000CD
:00000001FF
