:100000000C945D000C9485000C9485000C94850084
:100010000C9485000C9485000C9485000C9485004C
:100020000C9485000C9485000C9485000C9485003C
:100030000C9485000C9485000C9485000C9485002C
:100040000C942D030C9485000C9485000C94850071
:100050000C9485000C9485000C9485000C9485000C
:100060000C9485000C9485000000000024002700FB
:100070002A0000000000250028002B0004040404CE
:100080000404040402020202020203030303030342
:10009000010204081020408001020408102001021F
:1000A00004081020000000080002010000030407FB
:1000B00000000000000000004E0411241FBECFEF1E
:1000C000D8E0DEBFCDBF11E0A0E0B1E0E6EAF9E0A4
:1000D00002C005900D92AC30B107D9F721E0ACE039
:1000E000B1E001C01D92A133B207E1F710E0CDE508
:1000F000D0E004C02197FE010E94CB04CC35D1078B
:10010000C9F70E9477030C94D1040C94000090E08E
:10011000FC01EC55FF4F2491FC01E057FF4F349157
:10012000FC01E458FF4FE491EE23C9F0222339F09B
:10013000233001F1A8F4213019F1223029F1F0E047
:10014000EE0FFF1FEE58FF4FA591B4918FB7F894B3
:10015000EC91611126C030953E233C938FBF0895EA
:100160002730A9F02830C9F0243049F78091800069
:100170008F7D03C0809180008F7780938000DFCFD8
:1001800084B58F7784BDDBCF84B58F7DFBCF809125
:10019000B0008F778093B000D2CF8091B0008F7D78
:1001A000F9CF3E2BDACFCF93DF9390E0FC01E057FD
:1001B000FF4F249184589F4FFC0184918823D1F0F4
:1001C00090E0880F991FFC01E859FF4FA591B49169
:1001D000FC01EE58FF4FC591D49161110EC09FB73D
:1001E000F8948C91E22FE0958E238C932881E22362
:1001F000E8839FBFDF91CF9108958FB7F894EC917A
:10020000E22BEC938FBFF6CF8E50806480937C00FE
:1002100080917A00806480937A0080917A0086FDD4
:10022000FCCF809178009091790008953FB7F894C1
:100230008091150190911601A0911701B0911801BC
:1002400026B5A89B05C02F3F19F00196A11DB11D31
:100250003FBFBA2FA92F982F8827BC01CD01620F6D
:10026000711D811D911D42E0660F771F881F991F28
:100270004A95D1F70895AF92BF92CF92DF92EF9255
:10028000FF920F931F93CF93DF936C017B018B0140
:10029000040F151FEB015E01AE18BF08C017D10790
:1002A00059F06991D601ED91FC910190F081E02D1A
:1002B000C6010995892B79F7C501DF91CF911F916F
:1002C0000F91FF90EF90DF90CF90BF90AF90089587
:1002D000089590E080E008958F929F92AF92BF9230
:1002E0000F931F93CF93DF93CDB7DEB7A1970FB6D0
:1002F000F894DEBF0FBECDBF19A2423008F44AE029
:100300008E010F5D1F4F842E912CB12CA12CA501C5
:1003100094010E948B04E62FB901CA01EA3044F52A
:10032000E05DD801EE938D01232B242B252B79F74B
:1003300090E080E0109769F0FD0101900020E9F75E
:100340003197AF014A1B5B0BBD0189E191E00E942F
:100350003B01A1960FB6F894DEBF0FBECDBFDF9173
:10036000CF911F910F91BF90AF909F908F90089564
:10037000E95CD7CFCF93DF93EC0160E08E810E94E0
:10038000870061E08E810E94870060E08E810E947C
:1003900087008BE891E00197F1F7DF91CF91089505
:1003A000CF92DF92EF92FF920F931F93CF93DF9341
:1003B0006C017C0187E0E80EF11CD0E0C0E0062F64
:1003C00010E0B8010C2E02C0759567950A94E2F70B
:1003D0006170F70181917F010E9487002196C430EE
:1003E000D10579F7C601DF91CF911F910F91FF9051
:1003F000EF90DF90CF900C94BA01CF92DF92EF9202
:10040000FF920F931F93CF93DF93EC01F62E642F8F
:100410008C810E9487008D818F3F19F060E00E94DF
:1004200087000F2D10E08F8584FF25C06E0187E0C7
:10043000C80ED11CF12CE12CB8010E2C02C0759510
:1004400067950A94E2F76170F60181916F010E944D
:100450008700FFEFEF1AFF0A88E0E816F10461F762
:10046000CE01DF91CF911F910F91FF90EF90DF9020
:10047000CF900C94BA01B80184E0759567958A9580
:10048000E1F7CE010E94D0016F2DCE01DF91CF9117
:100490001F910F91FF90EF90DF90CF900C94D001BF
:1004A000CF93DF93823029F4909128019860909344
:1004B000280180932C0110922D0180E480932E015D
:1004C00080E180932F0180E58093300161E080918D
:1004D0001D010E94D30080911E018F3F19F061E041
:1004E0000E94D30061E080911F010E94D300C9E106
:1004F000D1E09E01295131408091280184FD0BC03B
:1005000084E090E021962817390744F461E08E8159
:100510000E94D300EECF88E090E0F4CF8BE39DE023
:100520000197F1F760E080911D010E94870060E073
:1005300080911F010E94870080911E018F3F19F05A
:1005400060E00E9487006091280164FD45C063E07F
:1005500089E191E00E94D001CBE4D6E4CE0101977D
:10056000F1F763E089E191E00E94D0012197F1F772
:1005700063E089E191E00E94D00183E592E0019778
:10058000F1F762E089E191E00E94D00160912801D9
:10059000606240E089E191E00E94FD0184E0809387
:1005A000290140E06CE089E191E00E94FD0140E01A
:1005B00061E089E191E00E94FD018BE39FE10197F9
:1005C000F1F782E080932A0140E066E089E191E062
:1005D000DF91CF910C94FD01606240E089E191E0F0
:1005E0000E94FD018BE496E40197F1F760912801E8
:1005F000606240E089E191E00E94FD0183E592E0C4
:100600000197F1F760912801606240E089E191E093
:100610000E94FD01BBCF41E00E94FD0181E090E01E
:100620000895CF92DF92EF92FF926B017C0141E03F
:100630006DE289E191E00E94FD0166277727CB01F9
:100640006C197D098E099F094AE00E946C01019690
:10065000FF90EF90DF90CF9008951F920F920FB60A
:100660000F9211242F933F938F939F93AF93BF9338
:100670008091110190911201A0911301B091140188
:100680003091100123E0230F2D3758F50196A11D5D
:10069000B11D209310018093110190931201A0933A
:1006A0001301B09314018091150190911601A0914E
:1006B0001701B09118010196A11DB11D809315017C
:1006C00090931601A0931701B0931801BF91AF91B9
:1006D0009F918F913F912F910F900FBE0F901F9080
:1006E000189526E8230F0296A11DB11DD2CF78944C
:1006F00084B5826084BD84B5816084BD85B5826027
:1007000085BD85B5816085BD80916E0081608093D7
:100710006E00109281008091810082608093810040
:100720008091810081608093810080918000816050
:10073000809380008091B10084608093B1008091AB
:10074000B00081608093B00080917A0084608093D3
:100750007A0080917A00826080937A0080917A009A
:10076000816080937A0080917A00806880937A001B
:100770001092C10082E00E94500261E08DE00E9470
:10078000D30060E08EE00E94D30060E08FE00E9422
:10079000D30060E080E10E94D30044244A9493E0B7
:1007A000592E612C712C0BE31FE1C0E0D0E00E94B8
:1007B00016014B015C0184EFC82EDD24D394E12C9B
:1007C000F12C0E941601681979098A099B09683E73
:1007D000734081059105A8F321E0C21AD108E10810
:1007E000F10888EE880E83E0981EA11CB11CC1148C
:1007F000D104E104F10429F78EE00E9404019C0178
:10080000ACE9BFEF0E94BC04A30192010E946C04FA
:1008100049015A0184E6880E911CA11CB11C9092DA
:100820000F0180920E018FE00E9404019C01ACE94F
:10083000BFEF0E94BC04A30192010E946C046901F5
:100840007A0184E6C80ED11CE11CF11CD0920D0186
:10085000C0920C0140E061E089E191E00E94FD015D
:10086000C8010197F1F780E10E94040181159240CF
:1008700044F4C501B401B7FC09C04AE00E946C0110
:1008800007C04AE0C701B601F7FEF8CF0E94110386
:10089000209709F48CCF0E94000089CFE9E1F1E0B4
:1008A0001382128284E091E09183808387E08483C5
:1008B0008FEF858386E0868385E0878384E0808769
:1008C00083E0818782E082871386148615861686E8
:1008D000178681E00C945002052E97FB1EF40094BD
:1008E0000E94830457FD07D00E948B0407FC03D0AD
:1008F0004EF40C94830450954095309521953F4FCC
:100900004F4F5F4F089590958095709561957F4FFB
:100910008F4F9F4F0895A1E21A2EAA1BBB1BFD010A
:100920000DC0AA1FBB1FEE1FFF1FA217B307E407CE
:10093000F50720F0A21BB30BE40BF50B661F771F26
:10094000881F991F1A9469F7609570958095909506
:100950009B01AC01BD01CF010895A29FB001B39FDF
:10096000C001A39F700D811D1124911DB29F700DB8
:10097000811D1124911D08950E94AD04332312F4AA
:100980008A1B9B0B0C94C6040E94AD04B7FF08950C
:10099000821B930B0895EE0FFF1F0590F491E02D3D
:0609A0000994F894FFCF5A
:0C09A600000000000B033B016901680128
:00000001FF
