:020000040000FA
:100000000C945D000C9485000C9485000C94850084
:100010000C9485000C9485000C9485000C9485004C
:100020000C9485000C9485000C9485000C9485003C
:100030000C9485000C9485000C9485000C9485002C
:100040000C9432040C9485000C94A2040C947C044F
:100050000C9485000C9485000C9485000C9485000C
:100060000C9485000C9485000000000024002700FB
:100070002A0000000000250028002B0004040404CE
:100080000404040402020202020203030303030342
:10009000010204081020408001020408102001021F
:1000A00004081020000000080002010000030407FB
:1000B0000000000000000000D40411241FBECFEF98
:1000C000D8E0DEBFCDBF11E0A0E0B1E0E8E6FDE0A2
:1000D00002C005900D92A232B107D9F721E0A2E249
:1000E000B1E001C01D92A43EB207E1F710E0CDE5FA
:1000F000D0E004C02197FE010E94AC06CC35D107A8
:10010000C9F70E941E050C94B2060C94000090E002
:10011000FC01EC55FF4F2491FC01E057FF4F349157
:10012000FC01E458FF4FE491EE23C9F0222339F09B
:10013000233001F1A8F4213019F1223029F1F0E047
:10014000EE0FFF1FEE58FF4FA591B4918FB7F894B3
:10015000EC91611126C030953E233C938FBF0895EA
:100160002730A9F02830C9F0243049F78091800069
:100170008F7D03C0809180008F7780938000DFCFD8
:1001800084B58F7784BDDBCF84B58F7DFBCF809125
:10019000B0008F778093B000D2CF8091B0008F7D78
:1001A000F9CF3E2BDACFCF93DF9390E0FC01E057FD
:1001B000FF4F249184589F4FFC0184918823D1F0F4
:1001C00090E0880F991FFC01E859FF4FA591B49169
:1001D000FC01EE58FF4FC591D49161110EC09FB73D
:1001E000F8948C91E22FE0958E238C932881E22362
:1001F000E8839FBFDF91CF9108958FB7F894EC917A
:10020000E22BEC938FBFF6CF8E50806480937C00FE
:1002100080917A00806480937A0080917A0086FDD4
:10022000FCCF809178009091790008953FB7F894C1
:1002300080912B0190912C01A0912D01B0912E0164
:1002400026B5A89B05C02F3F19F00196A11DB11D31
:100250003FBFBA2FA92F982F8827BC01CD01620F6D
:10026000711D811D911D42E0660F771F881F991F28
:100270004A95D1F70895AF92BF92CF92DF92EF9255
:10028000FF920F931F93CF93DF936C017B018B0140
:10029000040F151FEB015E01AE18BF08C017D10790
:1002A00059F06991D601ED91FC910190F081E02D1A
:1002B000C6010995892B79F7C501DF91CF911F916F
:1002C0000F91FF90EF90DF90CF90BF90AF90089587
:1002D000FC01538D448D252F30E0842F90E0821B4C
:1002E000930B541710F0CF96089501970895FC01D1
:1002F000918D828D981761F0A28DAE0FBF2FB11D29
:100300005D968C91928D9F5F9F73928F90E0089580
:100310008FEF9FEF0895FC01918D828D981731F03A
:10032000828DE80FF11D858D90E008958FEF9FEF8E
:100330000895FC01918D228D892F90E0805C9F4F64
:10034000821B91098F73992708958FE291E00E9493
:10035000990121E0892B09F420E0822F089580E0A3
:1003600090E0892B29F00E94A50181110C940000D6
:100370000895FC01A48DA80FB92FB11DA35ABF4F3A
:100380002C91848D90E001968F739927848FA68994
:10039000B7892C93A089B1898C91837080648C93E8
:1003A000938D848D981306C00288F389E02D808197
:1003B0008F7D80830895EF92FF920F931F93CF93C9
:1003C000DF93EC0181E0888F9B8D8C8D98131AC090
:1003D000E889F989808185FF15C09FB7F894EE8977
:1003E000FF896083E889F9898081837080648083D4
:1003F0009FBF81E090E0DF91CF911F910F91FF901F
:10040000EF900895F62E0B8D10E00F5F1F4F0F73C6
:100410001127E02E8C8D8E110CC00FB607FCFACF81
:10042000E889F989808185FFF5CFCE010E94B90165
:10043000F1CFEB8DEC0FFD2FF11DE35AFF4FF08252
:100440009FB7F8940B8FEA89FB8980818062CFCFB8
:10045000CF93DF93EC01888D8823B9F0AA89BB89FB
:10046000E889F9898C9185FD03C0808186FD0DC0E6
:100470000FB607FCF7CF8C9185FFF2CF808185FF07
:10048000EDCFCE010E94B901E9CFDF91CF91089560
:10049000089590E080E00895CF93DF93EC0160E051
:1004A0008E810E94870061E08E810E94870060E05B
:1004B0008E810E9487008BE891E00197F1F7DF9130
:1004C000CF910895CF92DF92EF92FF920F931F93F7
:1004D000CF93DF936C017C0187E0E80EF11CD0E044
:1004E000C0E0062F10E0B8010C2E02C0759567958C
:1004F0000A94E2F76170F70181917F010E94870001
:100500002196C430D10579F7C601DF91CF911F91B3
:100510000F91FF90EF90DF90CF900C944C02CF9210
:10052000DF92EF92FF920F931F93CF93DF93EC0133
:10053000F62E642F8C810E9487008D818F3F19F0E9
:1005400060E00E9487000F2D10E08F8584FF25C09A
:100550006E0187E0C80ED11CF12CE12CB8010E2CE5
:1005600002C0759567950A94E2F76170F601819172
:100570006F010E948700FFEFEF1AFF0A88E0E8167C
:10058000F10461F7CE01DF91CF911F910F91FF90A0
:10059000EF90DF90CF900C944C02B80184E07595F9
:1005A00067958A95E1F7CE010E9462026F2DCE0118
:1005B000DF91CF911F910F91FF90EF90DF90CF903F
:1005C0000C946202CF93DF93823029F49091DB0187
:1005D00098609093DB018093DF011092E00180E44A
:1005E0008093E10180E18093E20180E58093E30163
:1005F00061E08091D0010E94D3008091D1018F3FB2
:1006000019F061E00E94D30061E08091D2010E9464
:10061000D300CCECD1E09E012C5C31408091DB0119
:1006200084FD0BC084E090E021962817390744F43C
:1006300061E08E810E94D300EECF88E090E0F4CF9D
:100640008BE39DE00197F1F760E08091D0010E947B
:10065000870060E08091D2010E9487008091D101E3
:100660008F3F19F060E00E9487006091DB0164FD1C
:1006700045C063E08CEC91E00E946202CBE4D6E4DA
:10068000CE010197F1F763E08CEC91E00E946202E9
:100690002197F1F763E08CEC91E00E94620283E520
:1006A00092E00197F1F762E08CEC91E00E94620227
:1006B0006091DB01606240E08CEC91E00E948F026F
:1006C00084E08093DC0140E06CE08CEC91E00E94DF
:1006D0008F0240E061E08CEC91E00E948F028BE39E
:1006E0009FE10197F1F782E08093DD0140E066E051
:1006F0008CEC91E0DF91CF910C948F02606240E02E
:100700008CEC91E00E948F028BE496E40197F1F764
:100710006091DB01606240E08CEC91E00E948F020E
:1007200083E592E00197F1F76091DB01606240E0C0
:100730008CEC91E00E948F02BBCF41E00E948F02BF
:1007400081E090E008958F929F92AF92BF92EF92D6
:10075000FF920F931F93CF93DF93CDB7DEB7A1978F
:100760000FB6F894DEBF0FBECDBF7C01FA01CB01FE
:1007700019A2223008F42AE08E010F5D1F4F822E4D
:10078000912CB12CA12CBF01A50194010E946C06F3
:10079000F901CA016A3074F5605DD8016E938D016C
:1007A000232B242B252B79F790E080E0109789F0FC
:1007B000FD0101900020E9F73197AF014A1B5B0B67
:1007C000D701ED91FC910280F381E02DB801C701C2
:1007D0000995A1960FB6F894DEBF0FBECDBFDF918D
:1007E000CF911F910F91FF90EF90BF90AF909F908E
:1007F0008F900895695CD1CFCF92DF92EF92FF92F4
:100800000F931F93CF93DF9377FF21C06A017B0182
:10081000EC01E881F9810190F081E02D6DE209950C
:100820008C0144275527BA014C195D096E097F09CF
:100830002AE0CE010E94A303800F911FDF91CF9188
:100840001F910F91FF90EF90DF90CF9008952AE0D5
:10085000DF91CF911F910F91FF90EF90DF90CF909C
:100860000C94A3031F920F920FB60F9211242F9393
:100870003F938F939F93AF93BF9380912701909164
:100880002801A0912901B0912A013091260123E08D
:10089000230F2D3758F50196A11DB11D2093260178
:1008A0008093270190932801A0932901B0932A01F6
:1008B00080912B0190912C01A0912D01B0912E01DE
:1008C0000196A11DB11D80932B0190932C01A09343
:1008D0002D01B0932E01BF91AF919F918F913F91C8
:1008E0002F910F900FBE0F901F90189526E8230FA1
:1008F0000296A11DB11DD2CF1F920F920FB60F927B
:1009000011242F933F934F935F936F937F938F9314
:100910009F93AF93BF93EF93FF938FE291E00E9479
:10092000B901FF91EF91BF91AF919F918F917F910D
:100930006F915F914F913F912F910F900FBE0F904C
:100940001F9018951F920F920FB60F9211242F939C
:100950008F939F93EF93FF93E0913F01F0914001BC
:100960008081E0914501F091460182FD1BC090819C
:10097000809148018F5F8F7320914901821741F068
:10098000E0914801F0E0E15DFE4F958F80934801D2
:10099000FF91EF919F918F912F910F900FBE0F902C
:1009A0001F9018958081F4CFEFE2F1E0138212825C
:1009B00088EE93E0A0E0B0E084839583A683B783BC
:1009C00084E091E09183808385EC90E09587848733
:1009D00084EC90E09787868780EC90E0918B808B09
:1009E00081EC90E0938B828B82EC90E0958B848BF2
:1009F00086EC90E0978B868B118E128E138E148E60
:100A0000ECECF1E01382128286E191E09183808325
:100A100087E084838FEF858386E0868385E0878304
:100A200084E0808783E0818782E082871386148652
:100A300015861686178681E00C94E202789484B5B8
:100A4000826084BD84B5816084BD85B5826085BDCA
:100A500085B5816085BD80916E00816080936E0058
:100A6000109281008091810082608093810080914A
:100A700081008160809381008091800081608093FB
:100A800080008091B10084608093B1008091B000BB
:100A900081608093B00080917A00846080937A00B6
:100AA00080917A00826080937A0080917A008160E0
:100AB00080937A0080917A00806880937A00109207
:100AC000C10082E00E94E20261E08DE00E94D3005A
:100AD00060E08EE00E94D30060E08FE00E94D300CF
:100AE00060E080E10E94D300E0913F01F09140017D
:100AF00082E08083E0913B01F0913C011082E09123
:100B00003D01F0913E018FEC808310924701E0910E
:100B10004301F091440186E08083E0914101F0912E
:100B20004201808180618083E0914101F091420126
:100B3000808188608083E0914101F0914201808151
:100B400080688083E0914101F091420180818F7D36
:100B5000808344244A9493E0592E612C712C0BE33A
:100B60001FE1C0E0D0E00E9416014B015C0180E96A
:100B7000C82EDD24D394E12CF12C0E9416016819B3
:100B800079098A099B09683E734081059105A8F39C
:100B900021E0C21AD108E108F10888EE880E83E04E
:100BA000981EA11CB11CC114D104E104F10429F761
:100BB0008EE00E9404019C01ACE9BFEF0E949D06FB
:100BC000A30192010E944D0649015A0184E6880E54
:100BD000911CA11CB11C90922501809224018FE0F0
:100BE0000E9404019C01ACE9BFEF0E949D06A30195
:100BF00092010E944D0669017A0184E6C80ED11C5B
:100C0000E11CF11CD0922301C092220140E061E07E
:100C10008CEC91E00E948F02C8010197F1F780E10E
:100C20000E940401B501A4018115924014F0B7019E
:100C3000A6018CEC91E00E94FC03409124015091AC
:100C40002501052E000C660B770B8FE291E00E94C8
:100C5000FC036CE28FE291E00E94DB0140912201F3
:100C600050912301052E000C660B770B8FE291E06B
:100C70000E94FC0342E050E06EE171E08FE291E0FF
:100C80000E943B01209709F46ECF0E94A5018823A2
:100C900009F469CF0E94000066CF052E97FB1EF471
:100CA00000940E94640657FD07D00E946C0607FC62
:100CB00003D04EF40C9464065095409530952195E0
:100CC0003F4F4F4F5F4F0895909580957095619578
:100CD0007F4F8F4F9F4F0895A1E21A2EAA1BBB1B77
:100CE000FD010DC0AA1FBB1FEE1FFF1FA217B307F8
:100CF000E407F50720F0A21BB30BE40BF50B661F0E
:100D0000771F881F991F1A9469F7609570958095D1
:100D100090959B01AC01BD01CF010895A29FB00148
:100D2000B39FC001A39F700D811D1124911DB29F1F
:100D3000700D811D1124911D08950E948E0633238C
:100D400012F48A1B9B0B0C94A7060E948E06B7FF19
:100D50000895821B930B0895EE0FFF1F0590F491E9
:100D6000E02D0994F894FFCF00000000DB013B0167
:100D700068012802990177018B01000000009D03A2
:0A0D80003B01490248020D0A000081
:107E0000112484B714BE81FFF0D085E080938100F7
:107E100082E08093C00088E18093C10086E0809377
:107E2000C20080E18093C4008EE0C9D0259A86E02C
:107E300020E33CEF91E0309385002093840096BBD3
:107E4000B09BFECF1D9AA8958150A9F7CC24DD24C4
:107E500088248394B5E0AB2EA1E19A2EF3E0BF2EE7
:107E6000A2D0813461F49FD0082FAFD0023811F036
:107E7000013811F484E001C083E08DD089C08234E0
:107E800011F484E103C0853419F485E0A6D080C0E4
:107E9000853579F488D0E82EFF2485D0082F10E0AE
:107EA000102F00270E291F29000F111F8ED06801E7
:107EB0006FC0863521F484E090D080E0DECF843638
:107EC00009F040C070D06FD0082F6DD080E0C81688
:107ED00080E7D80618F4F601B7BEE895C0E0D1E017
:107EE00062D089930C17E1F7F0E0CF16F0E7DF06D8
:107EF00018F0F601B7BEE89568D007B600FCFDCFD4
:107F0000A601A0E0B1E02C9130E011968C91119780
:107F100090E0982F8827822B932B1296FA010C0160
:107F200087BEE89511244E5F5F4FF1E0A038BF0790
:107F300051F7F601A7BEE89507B600FCFDCF97BE46
:107F4000E89526C08437B1F42ED02DD0F82E2BD052
:107F50003CD0F601EF2C8F010F5F1F4F84911BD097
:107F6000EA94F801C1F70894C11CD11CFA94CF0C13
:107F7000D11C0EC0853739F428D08EE10CD085E9AC
:107F80000AD08FE07ACF813511F488E018D01DD067
:107F900080E101D065CF982F8091C00085FFFCCF94
:107FA0009093C60008958091C00087FFFCCF809118
:107FB000C00084FD01C0A8958091C6000895E0E648
:107FC000F0E098E1908380830895EDDF803219F02E
:107FD00088E0F5DFFFCF84E1DECF1F93182FE3DFCA
:107FE0001150E9F7F2DF1F91089580E0E8DFEE27F6
:047FF000FF270994CA
:027FFE00040479
:00000001FF
